:100000000C942A000C943C000C943C000C943C0092
:100010000C943C000C943C000C943C000C943C0070
:100020000C943C000C943C000C943C000C943C0060
:100030000C943C000C943C000C943C000C943C0050
:100040000C943C000C943C000C943C000C943C0040
:100050000C943C0011241FBECFE5D4E0DEBFCDBF21
:1000600010E0A0E6B0E001C01D92A437B107E1F7AF
:100070000E9436020C94F3020C94000083E397E094
:10008000FC013197F1F7A898A99840E345BBAA9ADB
:1000900020E034E2F9013197F1F7AA98FC01319799
:1000A000F1F7A898A99845BBAA9AF9013197F1F7F9
:1000B000AA98FC013197F1F7A898A99845BBAA9A8C
:1000C000F9013197F1F7AA980197F1F7A898A99843
:1000D00080E285BBAA9AC9010197F1F7AA98089511
:1000E00095B39F7095BB25B3982F907F922B95BBAE
:1000F000A898A998AA9A20E034E2F9013197F1F77B
:10010000AA9895B39F7095BB95B38295807F982BE5
:1001100095BBA898A998AA9AC9010197F1F7AA983E
:10012000089583E397E00197F1F788E20E94700059
:1001300081E00E94700086E00E9470008EE00E94C4
:10014000700080E80E947000089595B39F7095BB81
:1001500025B3982F907F922B95BBA89AA998AA9A1D
:1001600020E034E2F9013197F1F7AA9895B39F7036
:1001700095BB95B38295807F982B95BBA89AA9983B
:10018000AA9AC9010197F1F7AA98089580E80E94F8
:1001900070000895CF93DF93EC0103C00E94A50087
:1001A000219688818823D1F7DF91CF9108958230FD
:1001B00069F0833018F48130A9F405C0833049F028
:1001C000843081F40BC0862F815805C0862F81545E
:1001D00002C0862F8D560E9470000895862F8D5282
:1001E0000E94700008950F931F93CF93DF938A01AD
:1001F000E901882311F0662319F40E94C60002C0A9
:100200000E94D700C530D10571F4C80160E177E2E2
:100210000E94DF02CB01C096909361008093600042
:100220000E94A50005C0C430D10511F080E016C0C1
:10023000C80168EE73E00E94DF02CB0160936200A8
:10024000909363006AE070E00E94DF02C096909392
:100250007300809372000E94A50081E0C330D10535
:1002600021F0813011F080E016C0C80164E670E032
:100270000E94DF02CB0160936200909363006AE00A
:1002800070E00E94DF02C09690936F0080936E0032
:100290000E94A50081E0C230D10521F0813011F02B
:1002A00080E016C0C8016AE070E00E94DF02CB0166
:1002B00060936200909363006AE070E00E94DF0246
:1002C000C09690936C0080936B000E94A50081E023
:1002D000C130D10511F0813061F4C8016AE070E0ED
:1002E0000E94DF02C09690937100809370000E947C
:1002F000A50026971CF085E40E94A500DF91CF9110
:100300001F910F91089584B3876F84BB85B3807864
:1003100085BB08951ABA1BBA08958E9A82B312BA91
:10032000089584B3876F84BB85B3807885BB1ABA80
:100330001BBA8E9A82B312BA089516B817B880E81D
:1003400088B986E886B908958770806287B9369A39
:10035000349BFECF85B1349A08954770406247B907
:10036000369A349BFECF45B1349A4093640050E0F6
:1003700023E030E00E94F3000895969A8AE78A9578
:10038000F1F796980895F89484B3876F84BB85B38A
:10039000807885BB1ABA1BBA8E9A82B312BA16B885
:1003A00017B880E888B986E886B97894089587B345
:1003B0008F6087BB88B3807F88BB81B3806381BB3C
:1003C00082B3806382BB089587B38F6087BB88B395
:1003D000807F88BB81B3806381BB82B3806382BB33
:1003E000089598B3907F8F70892B88BB089588B348
:1003F000807F866088BB089588B3807F896088BBD2
:10040000089588B3807F856088BB089588B3807F16
:100410008A6088BB089588B3807F846088BB089514
:1004200088B3807F826088BB089588B3807F8160B5
:1004300088BB089588B3807F886088BB089588B39F
:10044000807F88BB089588B38F6088BB0895F89437
:1004500087B38F6087BB88B3807F88BB81B380639D
:1004600081BB82B3806382BB78940895EF92FF9240
:100470000F931F93CF93DF930E94C301F89487B328
:100480008F6087BB88B3807F88BB81B3806381BB6B
:1004900082B3806382BB78940E943E000E949100E8
:1004A0006AE7E62EC8EBD0E050E2F52E01E212E258
:1004B000969A8E2D8A95F1F796988CED95E0FE012F
:1004C0003197F1F70197D9F7F7B8369A349BFECFF9
:1004D00085B1349A90E0880F991F482F80936D0062
:1004E00007B9369A349BFECF85B1349A90E0880FD5
:1004F000991F8093650017B9369A349BFECF85B15A
:10050000349A90E0880F991F8093680081E061E041
:1005100050E023E030E00E94F3004091650081E06C
:1005200065E050E023E030E00E94F3004091680075
:1005300081E069E050E023E030E00E94F300909118
:100540006D002091680080916500813160F088B372
:10055000807F866088BB88EB9BE0FE013197F1F7D6
:100560000197D9F726C0913160F088B3807F816010
:1005700088BB88EB9BE0FE013197F1F70197D9F733
:1005800018C0213160F088B3807F886088BB88EB19
:100590009BE0FE013197F1F70197D9F70AC088B3C4
:1005A000807F88BB88E99AE3FE013197F1F70197D4
:1005B000D9F782E06DE046E00E94AD0179CFAA1B39
:1005C000BB1B51E107C0AA1FBB1FA617B70710F03E
:1005D000A61BB70B881F991F5A95A9F78095909570
:0A05E000BC01CD010895F894FFCF8F
:00000001FF
